:100000000C942A000C9485030C943C000C943C0046
:100010000C943C000C943C000C943C000C943C0070
:100020000C943C000C943C000C943C000C943C0060
:100030000C943C000C943C000C943C000C943C0050
:100040000C943C000C943C000C943C000C943C0040
:100050000C943C0011241FBECFE5D8E0DEBFCDBF1D
:1000600020E0A0E6B0E001C01D92A236B207E1F7A1
:100070000E948F010C948E050C9400001F93CF9367
:10008000DF9300D01F92CDB7DEB7AE014F5F5F4F59
:1000900062E081E40E94EB02AE014E5F5F4F60E0E0
:1000A00081E40E94EB02AE014D5F5F4F61E081E4AD
:1000B0000E94EB0262E082E40E9482018981813029
:1000C00081F460E082E40E947B0162E081E40E94AE
:1000D0007B0185E00E94B20362E081E40E9482011C
:1000E00079C08B81813089F561E081E40E947B01D8
:1000F00061E082E40E947B0110E00CC061E081E4D9
:100100000E94890161E082E40E94890181E00E94ED
:10011000B2031F5F153090F31B8261E081E40E94FF
:10012000820161E082E40E94820160E082E40E9438
:100130007B0162E081E40E947B0185E00E94B203C2
:1001400062E081E40E94820145C08A81813009F029
:1001500041C062E082E40E947B0185E00E94B2031C
:1001600062E082E40E94820160E081E40E948201F8
:1001700061E082E40E94820161E081E40E948201E8
:1001800010E00EC081E08B8361E081E40E94890170
:1001900061E082E40E94890181E00E94B2031F5F56
:1001A000153080F31B8261E081E40E94820161E0EE
:1001B00082E40E94820160E082E40E947B0162E0AE
:1001C00081E40E947B0185E00E94B20362E081E449
:1001D0000E94820160E082E40E94820162E082E487
:1001E0000E9482010F900F900F90DF91CF911F918D
:1001F000089560E081E40E94740161E081E40E945E
:10020000740162E081E40E94740160E082E40E9473
:10021000740161E082E40E94740162E082E40E9461
:1002200074010E94AE0381E00E9455038EE390E0CA
:100230000E94800308951F93CF93DF9300D01F92F5
:10024000CDB7DEB7AE014F5F5F4F62E081E40E9441
:10025000EB02AE014E5F5F4F60E081E40E94EB0273
:10026000AE014D5F5F4F61E081E40E94EB0260E010
:1002700081E40E947B0185E00E94B20360E081E49A
:100280000E94820110E008C061E081E40E948901BF
:1002900081E00E94B2031F5F1530B0F361E081E49A
:1002A0000E94820162E081E40E947B0185E00E945D
:1002B000B20362E081E40E94820110E008C061E0C4
:1002C00081E40E94890181E00E94B2031F5F153022
:1002D000B0F361E081E40E9482010F900F900F90D3
:1002E000DF91CF911F91089541E00E9494018130E8
:1002F00009F080E0089541E00E942102813009F078
:1003000080E0089540E00E942102813009F080E001
:1003100008950E94AE02813009F080E008950E94A5
:10032000F9000E941B01FDCF823449F118F4813499
:1003300041F07DC0833409F440C0843409F45AC0CC
:1003400076C041110DC02AB381E090E002C0880F51
:10035000991F6A95E2F7809582238ABB81E0089510
:10036000413009F066C02AB381E090E002C0880FF6
:10037000991F6A95E2F7822B8ABB81E008954111AB
:100380000DC027B381E090E002C0880F991F6A95E5
:10039000E2F78095822387BB81E00895413009F020
:1003A0004AC027B381E090E002C0880F991F6A9588
:1003B000E2F7822B87BB81E0089541110DC024B381
:1003C00081E090E002C0880F991F6A95E2F780955E
:1003D000822384BB81E00895413079F524B381E024
:1003E00090E002C0880F991F6A95E2F7822B84BBC8
:1003F00081E0089541110DC021B381E090E002C079
:10040000880F991F6A95E2F78095822381BB81E06E
:1004100008954130A1F421B381E090E002C0880F3B
:10042000991F6A95E2F7822B81BB81E0089580E0F5
:10043000089580E0089580E0089580E0089580E0C8
:100440000895823449F118F4813441F07DC0833439
:1004500009F440C0843409F45AC076C041110DC07B
:100460002BB381E090E002C0880F991F6A95E2F7F4
:10047000809582238BBB81E00895413009F066C0EE
:100480002BB381E090E002C0880F991F6A95E2F7D4
:10049000822B8BBB81E0089541110DC028B381E010
:1004A00090E002C0880F991F6A95E2F78095822339
:1004B00088BB81E00895413009F04AC028B381E04B
:1004C00090E002C0880F991F6A95E2F7822B88BBE3
:1004D00081E0089541110DC025B381E090E002C094
:1004E000880F991F6A95E2F78095822385BB81E08A
:1004F0000895413079F525B381E090E002C0880F7E
:10050000991F6A95E2F7822B85BB81E0089541111E
:100510000DC022B381E090E002C0880F991F6A9558
:10052000E2F78095822382BB81E008954130A1F4F7
:1005300022B381E090E002C0880F991F6A95E2F72C
:10054000822B82BB81E0089580E0089580E00895C9
:1005500080E0089580E0089580E008958234A9F055
:1005600018F4813431F035C08334D9F0843429F162
:1005700030C02BB381E090E002C0880F991F6A95CC
:10058000E2F782278BBB81E0089528B381E090E0F9
:1005900002C0880F991F6A95E2F7822788BB81E025
:1005A000089525B381E090E002C0880F991F6A95F5
:1005B000E2F7822785BB81E0089522B381E090E0D5
:1005C00002C0880F991F6A95E2F7822782BB81E0FB
:1005D000089580E00895823409F118F4813439F0E7
:1005E00062C0833491F1843409F446C05CC079B3AD
:1005F00081E090E09C01062E02C0220F331F0A9476
:10060000E2F7872F90E08223932302C09595879588
:100610006A95E2F7FA01808381E0089576B381E07C
:1006200090E09C01062E02C0220F331F0A94E2F7CD
:10063000872F90E08223932302C0959587956A9532
:10064000E2F7FA01808381E0089573B381E090E0DE
:100650009C01062E02C0220F331F0A94E2F7872F57
:1006600090E08223932302C0959587956A95E2F7DF
:10067000FA01808381E0089570B381E090E09C01ED
:10068000062E02C0220F331F0A94E2F7872F90E054
:100690008223932302C0959587956A95E2F7FA0124
:1006A000808381E0089580E008959BB790649BBFAC
:1006B000813071F028F0823089F08330B9F01EC0AB
:1006C00085B78E7F85BF85B7826085BF81E008953D
:1006D00085B7816085BF85B7826085BF85B78E7F0E
:1006E00085BF85B78D7F85BF81E0089585B781601F
:1006F00085BF85B78D7F85BF81E0089580E008952F
:10070000909361008093600008951F920F920FB63E
:100710000F9211242F933F934F935F936F937F9387
:100720008F939F93AF93BF93EF93FF93E0916000FC
:10073000F0916100309709F00995FF91EF91BF9119
:10074000AF919F918F917F916F915F914F913F9169
:100750002F910F900FBE0F901F9018958FB7806844
:100760008FBF08958F929F92AF92BF92CF92DF92E8
:10077000EF92FF92882391F1682F70E080E090E083
:100780000E94DE042DEB37E346E859E30E946A0439
:100790004B015C0113BE12BE83B7816083BFC12CC5
:1007A000D12C760110C008B600FEFDCF88B781605D
:1007B00088BF20E030E040E85FE3C701B6010E9457
:1007C000F9036B017C01A5019401C701B6010E94E8
:1007D0006504882344F313BE81E001C080E0FF90EC
:1007E000EF90DF90CF90BF90AF909F908F90089543
:1007F0005058BB27AA270E9410040C9454050E944D
:10080000460538F00E944D0520F039F49F3F19F459
:1008100026F40C9443050EF4E095E7FB0C943D059B
:10082000E92F0E94650558F3BA176207730784071A
:10083000950720F079F4A6F50C9487050EF4E09561
:100840000B2EBA2FA02D0B01B90190010C01CA018A
:10085000A0011124FF27591B99F0593F50F4503E35
:1008600068F11A16F040A22F232F342F4427585F27
:10087000F3CF469537952795A795F0405395C9F73F
:100880007EF41F16BA0B620B730B840BBAF09150F7
:10089000A1F0FF0FBB1F661F771F881FC2F70EC096
:1008A000BA0F621F731F841F48F487957795679569
:1008B000B795F7959E3F08F0B0CF9395880F08F055
:1008C0009927EE0F9795879508950E94190508F4CA
:1008D00081E008950E947E040C9454050E944D0509
:1008E00058F00E94460540F029F45F3F29F00C942F
:1008F0003D0551110C9488050C9443050E94650533
:1009000068F39923B1F3552391F3951B550BBB273E
:10091000AA2762177307840738F09F5F5F4F220F83
:10092000331F441FAA1FA9F335D00E2E3AF0E0E87A
:1009300032D091505040E695001CCAF72BD0FE2FC4
:1009400029D0660F771F881FBB1F26173707480758
:10095000AB07B0E809F0BB0B802DBF01FF27935810
:100960005F4F3AF09E3F510578F00C943D050C9492
:1009700088055F3FE4F3983ED4F3869577956795B5
:10098000B795F7959F5FC9F7880F911D9695879545
:1009900097F90895E1E0660F771F881FBB1F621764
:1009A00073078407BA0720F0621B730B840BBA0B22
:1009B000EE1F88F7E0950895E89409C097FB3EF490
:1009C00090958095709561957F4F8F4F9F4F99239C
:1009D000A9F0F92F96E9BB279395F695879577951A
:1009E0006795B795F111F8CFFAF4BB0F11F460FFDA
:1009F0001BC06F5F7F4F8F4F9F4F16C0882311F032
:100A000096E911C0772321F09EE8872F762F05C045
:100A1000662371F096E8862F70E060E02AF09A95E0
:100A2000660F771F881FDAF7880F9695879597F9D5
:100A30000895990F0008550FAA0BE0E8FEEF16166F
:100A40001706E807F907C0F012161306E407F507C2
:100A500098F0621B730B840B950B39F40A2661F036
:100A6000232B242B252B21F408950A2609F4A140D9
:100A7000A6958FEF811D811D089597F99F6780E8E6
:100A800070E060E008959FEF80EC089500240A94E0
:100A90001616170618060906089500240A94121659
:100AA0001306140605060895092E0394000C11F48C
:100AB000882352F0BB0F40F4BF2B11F460FF04C039
:100AC0006F5F7F4F8F4F9F4F089557FD9058440F92
:100AD000551F59F05F3F71F04795880F97FB991F9D
:100AE00061F09F3F79F0879508951216130614065A
:100AF000551FF2CF4695F1DF08C0161617061806E7
:100B0000991FF1CF86957105610508940895E894C1
:100B1000BB2766277727CB0197F90895F894FFCF75
:00000001FF
